:1000000012C02CC02BC02AC03CC328C027C026C0A9
:1000100025C026C323C022C021C020C01FC01EC0CF
:100020001DC01CC01BC011241FBECFE5D4E0DEBF25
:10003000CDBF10E0A0E6B0E0EAEDF8E002C0059028
:100040000D92A236B107D9F711E0A2E6B0E001C0E7
:100050001D92A630B107E1F7B6D23DC4D1CFCF9300
:10006000DF9380916C00833009F45CC0843028F405
:10007000813079F18230E0F50AC08B3009F472C02A
:100080008C3009F489C08A3009F094C05CC0CCEB94
:10009000D0E0CE0161E0F3D3CE0162E0F0D3CE0137
:1000A0006AE0EDD3CE016BE0EAD380916F00882344
:1000B00029F081E080936C0010926F0080916E00B7
:1000C000882309F477C08AE080936C0010926E0058
:1000D00071C09398949AC59A82E080936C008CEBDF
:1000E00090E044E650E060E070E02AE066D362C051
:1000F0008CEB90E06AE070E0D5D2009729F09398FD
:100100009498C59810926C00B29954C083E0809383
:100110006C008CEB90E041E150E060E070E021E0A9
:100120004CD348C08CEB90E061E070E0BBD200970C
:1001300009F440C093989498C59881E080936D002D
:1001400010926C0037C09498939AC59A8BE0809374
:100150006C008CEB90E044E650E060E070E02BE057
:100160002CD328C08CEB90E06BE070E09BD2009722
:1001700029F093989498C59810926C00B29B1AC07D
:100180008CE080936C008CEB90E04FE050E060E0FE
:1001900070E022E012D30EC08CEB90E062E070E0E1
:1001A00081D2009739F093989498C59810926D0079
:1001B00010926C00DF91CF910895809167008823A1
:1001C00031F01092600010926700109261008091EF
:1001D0006000823089F1833030F4882359F0813017
:1001E00009F06CC014C0833009F440C0843009F0B9
:1001F00065C056C0969A82E790E04AE050E060E021
:1002000070E021E0DAD281E080936000089582E717
:1002100090E061E070E046D2009709F44FC09698F4
:1002200082E790E04AE050E060E070E022E0C5D272
:1002300082E080936000089582E790E062E070E0E1
:1002400031D20097D9F18091660081FF02C0969863
:1002500001C0969A82E790E04AE050E060E070E0EA
:1002600023E0ABD283E080936000089582E790E0C2
:1002700063E070E017D2009709F18091660080FF7B
:1002800002C0969801C0969A82E790E04AE050E05A
:1002900060E070E024E091D284E0809360000895F3
:1002A00082E790E064E070E0FDD1009739F0969825
:1002B0008AE08093600081E08093610008958091DE
:1002C0006100882309F49CC0809168008230D9F1D4
:1002D000833030F4882371F0813009F091C01AC066
:1002E000843009F463C0843008F446C0853009F0D6
:1002F00087C076C0859984C082E790E044E050E0F2
:1003000060E070E028EC59D21092710081E0809397
:100310006800089582E790E068EC70E0C3D1009730
:1003200009F46EC085990CC082E790E04AE050E085
:1003300060E070E029EC41D282E08093680008958B
:1003400010926800089582E790E069EC70E0AAD10D
:10035000009709F455C0859B0CC082E790E04AE005
:1003600050E060E070E02AEC28D283E080936800DF
:10037000089510926800089582E790E06AEC70E0BA
:1003800091D10097E9F1859B05C080917100826051
:100390008093710082E790E04AE050E060E070E016
:1003A0002BEC0BD284E080936800089582E790E004
:1003B0006BEC70E077D1009719F1859B05C08091B7
:1003C000710081608093710082E790E044E150E029
:1003D00060E070E02CECF1D185E080936800089536
:1003E00082E790E06CEC70E05DD1009749F01092EC
:1003F0006800809171008093640081E080936500C3
:10040000089580916500882309F443C080916400B9
:100410008823D1F41092660080916D00882339F40E
:1004200082E08093660081E0809367000DC0813098
:1004300059F4B09B03C08093660003C083E08093AF
:10044000660081E08093670080916400813051F400
:1004500080936E0093E09093660080936700809392
:10046000630015C0823061F481E080936B0093E0FB
:10047000909366008093670082E08093630007C0DA
:10048000833029F48093660081E0809367001092A6
:1004900065000895809162008A3009F452C08B3063
:1004A00030F4882371F0813009F08CC03CC0843175
:1004B00009F468C0853109F479C08B3009F082C035
:1004C00054C080916300813061F4C59A8CEB90E058
:1004D00043E050E060E070E026E46FD181E080937B
:1004E000620080916300823061F4C59A8CEB90E0E9
:1004F00043E050E060E070E026E45FD18AE0809362
:10050000620080916300833009F05CC0C59A8CEB77
:1005100090E043E050E060E070E026E44ED184E1FA
:100520008093620008958CEB90E066E470E0BAD0AE
:10053000009709F447C0C5981092630010926200BA
:1005400008958CEB90E066E470E0ACD00097D1F1B8
:10055000C5988BE0809362008CEB90E043E050E024
:1005600060E070E027E429D108958CEB90E067E427
:1005700070E098D0009731F181E080936300109291
:10058000620008958CEB90E066E470E08BD00097F9
:10059000C9F0C59885E1809362008CEB90E043E060
:1005A00050E060E070E027E408D108958CEB90E023
:1005B00067E470E077D0009729F082E080936300D1
:1005C00010926200089588E581BB82E287BB83B701
:1005D000856083BF89B7816089BF84E085BD89B7A5
:1005E000806489BF7894C19AC598B29B04C081E0A9
:1005F00080936D0002C010926D008CEB90E055D19D
:1006000082E790E052D183E080936300CCEBD0E0AE
:1006100002E710E0FF24F394CE016FD0C8016DD043
:100620001EDDCBDD4CDEEDDE35DF80916A008130F2
:1006300021F4CE019FD010926A0080916900813030
:1006400021F4C80197D01092690080916B0081302D
:1006500019F7B099E1CFF0926F0010926B00DCCFE8
:100660001F920F920FB60F9211248F938FE982BFC2
:1006700081E080936A008F910F900FBE0F901F90C2
:1006800018951F920F920FB60F9211248F9383E645
:1006900084BD81E0809369008F910F900FBE0F9011
:1006A0001F901895CF93DF93EC01DC01169680E044
:1006B00090E0AC01FD01319770817723A9F47C9122
:1006C000713091F4FD0136972081261769F4880F67
:1006D000991F880F991F880F991F841B950BC80FAE
:1006E000D91F81E08D8306C0019617968A30910547
:1006F00001F780E0DF91CF910895DF92EF92FF92B2
:100700000F931F93CF93DF939C012A5F3F4F8C0180
:10071000045B1F4F0F2EF6E4EF2EFF24F02DE80EA2
:10072000F91EDD24D394E901F901319780818823F2
:10073000A1F4F901359780819181A281B381F701FC
:10074000408151816281738184179507A607B7079D
:1007500021F48881882309F4D882295F3F4F20172C
:10076000310709F7DF91CF911F910F91FF90EF9023
:10077000DF900895FC01EA5BFF4F40815181628167
:1007800073814F3F2FEF52072FEF62072FEF720752
:1007900061F0FC01EA5BFF4F4F5F5F4F6F4F7F4F90
:1007A00040835183628373830895FC01EA5BFF4FAA
:1007B000108211821282138208958F929F92AF92BB
:1007C000BF92CF92DF92EF92FF92DC016A017B0130
:1007D000FC01EA5BFF4F80809180A280B380159678
:1007E0008C911597813049F0FD013C9681E090E0B5
:1007F000AC013081313001F502C040E050E0CA0167
:10080000880F991F880F991F880F991F841B950BBC
:10081000A80FB91F2C93C80CD91CEA1CFB1C1196FD
:10082000CD92DD92ED92FC92149715961C9215973D
:1008300016961C92169705C0019637968A30910538
:10084000B9F6FF90EF90DF90CF90BF90AF909F9060
:100850008F900895CF93DF93FC0135968AE021E0D5
:100860009081992329F4EF0125979881961320838D
:10087000815037968823A1F7DF91CF910895CF93C8
:10088000DF93FC0135968AE021E09081992331F4D1
:10089000EF0125979881961709F4208381503796A8
:1008A000882399F7DF91CF910895FC0120E031E092
:1008B00010821182128213821482358316822F5F76
:1008C00037962A30A9F78A5B9F4FFC01108211826C
:0A08D000128213820895F894FFCFFE
:0208DA000A0111
:00000001FF
